:100000000C94DB010C940A020C940A020C940A0270
:100010000C940A020C940A020C940A020C940A0230
:100020000C940A020C940A020C940A020C940A0220
:100030000C940A020C940A020C940A020C940A0210
:100040000C940A020C94EB190C940A020C940A0208
:100050000C940A020C940A020C940A020C949E0E50
:100060000C940A020C9487150C9477160C940A02CF
:100070000C940A020C940A020C940A020C940A02D0
:100080000C94191A0C940A020C940A020C940A0299
:100090000C94BB150C94B6160C940A020C94182000
:1000A0000C940A020C940A020C94471A0C940A024B
:1000B0000C940A020C940A020C940A020C94751A0D
:1000C0000C940A020C940A020C940A020C94EF1588
:1000D0000C94F5160C940A020C9423160C94341705
:1000E0000C940A026B0D8F0DB30DD70D630E4B0DE3
:1000F000630E000E040E0B0E630E110E630E630EE4
:10010000630E630E630E630E2B0DFB0D630E630E09
:10011000250E630E630E630E630E630E630E630E95
:10012000630E630E410E440E470E4A0E630E3C0EE4
:10013000630E630E630E630E630E630E630E630E37
:10014000630E630E630E630E370ED00FD50FDA0FFA
:10015000E40F5D10EE0FF60FFE0F081012101C10CA
:100160002B1035105D103F10491053107B107E107E
:1001700071107510B510821086108C1090109410AC
:100180009A109E10A210B510A810AC10B010005E0E
:10019000BCE2613FDD83C29C7E20A3FD1F419DC365
:1001A000217FFCA2401E5F01E3BD3E6082DC237D17
:1001B0009FC1421CFEA0E1BF5D0380DE3C62BEE049
:1001C000025CDF81633D7C22C09E1D43A1FF461877
:1001D000FAA427799BC584DA3866E5BB5907DB8525
:1001E0006739BAE406581947A5FB7826C49A653BD7
:1001F000D987045AB8E6A7F91B45C6987A24F8A609
:10020000441A99C7257B3A6486D85B05E7B98CD236
:10021000306EEDB3510F4E10F2AC2F7193CD114FE4
:10022000ADF3702ECC92D38D6F31B2EC0E50AFF196
:10023000134DCE90722C6D33D18F0C52B0EE326CC8
:100240008ED0530DEFB1F0AE4C1291CF2D73CA94F6
:100250007628ABF517490856B4EA6937D58B5709A4
:10026000EBB536688AD495CB2977F4AA4816E9B756
:10027000550B88D6346A2B7597C94A14F6A8742A88
:10028000C896154BA9F7B6E80A54D7896B35000014
:10029000090A02080B0C0D07060304010000000008
:1002A000000000000000000000000000000000004E
:1002B0000000000000000000000011100F0000000E
:1002C000000000000000000000000000000000002E
:1002D000000000000102102020080810204010201B
:1002E00040800201020108040201010204081020FA
:1002F00040808040201008040201800402018040F8
:100300002010080402010804020101020408102060
:1003100040800102040810204080050505050705FE
:1003200008080808020202020A0A08080404040471
:10033000010101010101010103030303030303039D
:10034000040707070C0C0C0C0C0C0C0C020202022C
:1003500006060606060606060B0B0B0B0B0B0B0B15
:10036000000020002300260029002C002F0032006E
:100370000001000003010601090100002200250020
:1003800028002B002E00310034000201000005017E
:1003900008010B0100002100240027002A002D0085
:1003A0003000330001010000040107010A01C30C01
:1003B000F417DF1CEF0C11241FBECFEFD1E2DEBF1C
:1003C000CDBF12E0A0E0B2E0E2E8F9E400E00BBF4C
:1003D00002C007900D92A636B107D9F726E0A6E62F
:1003E000B2E001C01D92A43DB207E1F713E0C4EBF7
:1003F000D3E000E006C022970109FE010BBF0E9476
:100400008824CE3AD10780E00807A9F70E94CF14CC
:100410000C9470210C940000FF920F931F93CF93C4
:10042000DF93FC010081C181D281F8948981F02E93
:10043000F0948F21898378941DE7115029F182E08F
:1004400090E00E943D0F88818023B9F3F8948A815F
:100450008F218A838981802B8983789480EE91E033
:100460000E943D0FF89489818F21898386E490E072
:100470000E943D0F8881802311E009F010E07894FC
:100480008AE991E00E943D0F812FDF91CF911F916A
:100490000F91FF9008951F93CF93DF93FC0110817C
:1004A000C181D281912F909560FF12C0F8948A810A
:1004B00089238A838981812B89838AE090E00E9445
:1004C0003D0F8A81812B8A83789487E390E011C065
:1004D000F8948A8189238A838981812B898381E4A5
:1004E00090E00E943D0F8A81812B8A83789485E079
:1004F00090E0DF91CF911F910C943D0F0F931F93CC
:10050000CF93DF93FC011081C181D281F89489815E
:10051000812B89838A81012F009580238A8383E040
:1005200090E00E943D0F8981802389838AE090E0DA
:100530000E943D0FC881789485E390E00E943D0FB2
:100540001C2381E009F480E0DF91CF911F910F918E
:100550000895CF92DF92EF92FF920F931F93CF9364
:10056000DF931F92CDB7DEB76C01E62E08E010E0F6
:10057000FF24F39461E09F2D9E2109F460E0C60101
:1005800049830E944B02FF0C01501109498101155A
:10059000110581F7411115C0F894D6011196ED911E
:1005A000FC91129791818C9180958923818311967A
:1005B000ED91FC91129792818C9180958923828391
:1005C00078940F90DF91CF911F910F91FF90EF9052
:1005D000DF90CF900895EF92FF920F931F93CF93E8
:1005E000DF938C01C8E0D0E0F12CEE24E394C80145
:1005F0000E947E028111FE28EE0C21972097B9F708
:100600008F2DDF91CF911F910F91FF90EF90089563
:10061000CF92DF92FF920F931F93CF93DF931F929E
:10062000CDB7DEB78C01F62E40E065E579830E94F8
:10063000A902CF2C7981D72E88E0F82EF60161919E
:100640006F0140E0C8010E94A902FA94B9F70F9027
:10065000DF91CF911F910F91FF90DF90CF90089580
:1006600040E06CEC0C94A902FC01138615861486FC
:1006700027E030E0DF01A20FB31F13961C92211573
:10068000310519F021503109F5CF08951F93CF930B
:10069000DF93EC01162F60E0812F0E94B610612FCE
:1006A00070E0FB01EC52FD4FE491E883FB01E65E54
:1006B000FC4FE491F0E0EE0FFF1FE05AFC4F8591F4
:1006C00094919A838983CE01DF91CF911F910C94ED
:1006D0003403AF92BF92CF92DF92EF92FF920F93CB
:1006E0001F93CF93DF931F92CDB7DEB75C01E62E49
:1006F000D72EFC01858581115DC0C5010E940C02C9
:10070000811105C0F5011386158614866EC040E080
:1007100060EFC5010E94A90201E0F12CC12C11E09B
:10072000C5010E947E02682FC50169830E947E0276
:100730006981613019F48130B9F433C02F2D30E074
:1007400068131BC0F5018385181730F4E20FF31FFF
:100750008381802349F402C0181731F060E019301A
:1007600058F4F501148708C0F501EF0DF11D8381E0
:10077000802B838361E009C0C12EF501E20FF31FD6
:100780008381902F909589238383C5010E944B021A
:100790001F5F000F11F4F39401E0F7E0FF1508F07C
:1007A000BFCF113438F0F501C386C11018C081E005
:1007B000858715C0F50113861586148680E0EE2D19
:1007C000FD2D20E030E0D501A20FB31F13969C91C0
:1007D00091932F5F3F4F28303105A9F706C0F501EF
:1007E0008381882339F381E0EACF0F90DF91CF91A5
:1007F0001F910F91FF90EF90DF90CF90BF90AF903F
:100800000895DC0180E0615038F0ED91E827F0E0D8
:10081000E257FE4F8491F7CF08950895FC018DE0D3
:1008200094E0928B818B768365831482108289E0B9
:10083000818381E0828383830895CF93DF93EB01EB
:1008400067E0CE010E94010491E02F81821390E0C5
:10085000892FDF91CF910895EF92FF920F931F930D
:10086000CF93DF93EC018B01E42E8D819E810E945A
:100870003403F12CB8018D819E810E946903882385
:1008800059F0FE1006C0B801CE010E941D0481116E
:1008900004C0F394EF1470F780E0DF91CF911F91C3
:1008A0000F91FF90EF900895CF92DF92EF92FF9219
:1008B0000F931F93CF93DF9300D0CDB7DEB76C01BA
:1008C000F42EE52EFC018581968169837A830E944E
:1008D0000C0269817A81882311F1F6018581968164
:1008E0000E94080340E06EEBF601858196810E942C
:1008F000A9020F2D1E2D89E0F82EF6018581968123
:100900000E94EB02F80181938F01FA94B1F7F6018E
:10091000858196810E940C0291E0813009F090E07F
:10092000892F0F900F90DF91CF911F910F91FF9022
:10093000EF90DF90CF900895CF93DF93EA010E946C
:100940005404882351F068E0CE010E94010491E034
:100950002885821390E0892F01C080E0DF91CF913C
:100960000895EF92FF921F93CF93DF9300D0CDB7FE
:10097000DEB77C01FC018581968169837A830E94C0
:100980000C0269817A81F701858196810E940803B2
:1009900040E064EBF701858196810E94A902F7018E
:1009A000858196810E947E02182FF70185819681AC
:1009B0000E940C0281E0111180E00F900F90DF91F6
:1009C000CF911F91FF90EF900895CF93DF93CDB714
:1009D000DEB729970FB6F894DEBF0FBECDBFFB017F
:1009E00020812031D1F0AE014F5F5F4F0E949C0407
:1009F000882379F08D818F3351F020F48F3149F4C1
:100A000089E00CC08F3539F08F3739F002C08AE0A9
:100A100005C080E003C08BE001C08CE029960FB6D2
:100A2000F894DEBF0FBECDBFDF91CF910895EF9256
:100A3000FF920F931F93CF93DF93CDB7DEB7289725
:100A40000FB6F894DEBF0FBECDBF8C01FC018581CF
:100A500096810E943403F8011482FF24F394BE01AE
:100A60006F5F7F4FF801858196810E94690388231B
:100A700081F1BE016F5F7F4FC8010E941D04882372
:100A800071F3F8018081811108C0BE016F5F7F4F53
:100A9000C8010E94B104811119C0F801E180BE01B2
:100AA0006F5F7F4FC8010E94E5048E1518F4F801AE
:100AB000818106C0BE016F5F7F4FC8010E94E504BF
:100AC000F801818384818F5F8483C9CFF801F0822C
:100AD000E4CF28960FB6F894DEBF0FBECDBFDF91EE
:100AE000CF911F910F91FF90EF900895FC018581A8
:100AF00096810E947E0291E0813009F090E0892F7A
:100B000008958F929F92AF92BF92CF92DF92EF9211
:100B1000FF920F931F93CF93DF93EC0169506330E3
:100B200048F4E62FF0E0EE0FFF1FE45FFD4F008179
:100B3000118102C00EEE12E08B818823E9F08881DA
:100B400081111AC00E94E80E6B017C014801AA24A1
:100B500097FCA094BA2CCE010E94760581111FC08B
:100B60000E94E80E681979098A099B096C157D05B0
:100B70008E059F05A0F4EFCFB801882777FD8095FB
:100B8000982FDF91CF911F910F91FF90EF90DF9001
:100B9000CF90BF90AF909F908F900C94170FDF91E4
:100BA000CF911F910F91FF90EF90DF90CF90BF906A
:100BB000AF909F908F900895CF93DF93EC018D813C
:100BC0009E810E940C028D819E810E94300348818B
:100BD00064E48D819E810E94A9028A81882331F07C
:100BE0006981CE01DF91CF910C948105DF91CF9186
:100BF0000895FA01208148E0249F90011124818109
:100C000090E0982F8827990F990F990F282B392B4F
:100C1000DB018C918031C1F4678170E08681AB018A
:100C2000481B5109CA019695982F88279795879553
:100C30000E94222460517109207F53E0220F331F4C
:100C40005A95E1F7260F371FC9010895EF92FF92D9
:100C50000F931F93CF93DF93CDB7DEB729970FB6CE
:100C6000F894DEBF0FBECDBF8C017B01AE014F5F9C
:100C70005F4F0E949C04882341F0AE014F5F5F4F9D
:100C8000B701C8010E94F90502C080E894EE2996D8
:100C90000FB6F894DEBF0FBECDBFDF91CF911F918D
:100CA0000F91FF90EF900895813824EE920774F031
:100CB000BC01882777FD8095982F0E94DB2220E0D9
:100CC00030E040E05CE30E948F23089560E070E034
:100CD0008EEF92EC08950E9426060C9454060F9312
:100CE0001F93CF93DF93CDB7DEB728970FB6F89455
:100CF000DEBF0FBECDBF8C01462FBE016F5F7F4FA1
:100D00000E942C04882339F0BE016F5F7F4FC80119
:100D10000E946B0604C060E070E08EEF92EC2896B3
:100D20000FB6F894DEBF0FBECDBFDF91CF911F91FC
:100D30000F9108952EE132E0FC0131832083089564
:100D40000895FC01658308952EE132E0FC013183B2
:100D5000208308952EE132E0FC01318320830C943E
:100D6000CC142EE132E0FC01318320830C94CC14AE
:100D70000F931F93CF93DF938C01EB0188E2FB016C
:100D800011928A95E9F74BE050E062E172E0CE0102
:100D90000E9483211B8641E050E060E070E04C87B8
:100DA0005D876E877F87F8014285538564857585E9
:100DB000488B598B6A8B7B8B45E050E060E070E09C
:100DC0004C8B5D8B6E8B7F8B1CA21DA21EA21FA263
:100DD00040E050ED64E876E4488F598F6A8F7B8F4E
:100DE0001C8E1D8E1E8E1F8E40E050E060E87FE35B
:100DF00048A359A36AA37BA3DF91CF911F910F91C1
:100E00000895FC018CE292E09183808363831482D5
:100E100015821782168211861086228733874487AF
:100E2000558708954F925F926F927F928F929F9213
:100E3000AF92BF92CF92DF92EF92FF92FA01DC0164
:100E400016962D913C9117972115310531F02130DF
:100E5000310531F048EE5DEF05C044E253E102C0D8
:100E600048E850E94617570708F4CCC04E175F070B
:100E700008F4C8C02115310549F02130310569F069
:100E8000C12C24E0D22EE12CF12C0DC037E1C32E71
:100E900035E7D32EE12CF12C06C0B7EECB2EBFE008
:100EA000DB2EE12CF12CDC0118968D919C91199789
:100EB000892B39F4A4E0CC0CDD1CEE1CFF1CAA9598
:100EC000D1F7DB01A70196010E947D244B015C0153
:100ED0006AE0B694A794979487946A95D1F7DF0156
:100EE0000E947D242B013C017AE07694679457940C
:100EF00047947A95D1F781149104A104B10471F05B
:100F0000C301B2013AE0660F771F881F991F3A9517
:100F1000D1F7A50194010E94362403C020E030E0FF
:100F2000A901DA01C9010196A11DB11DB695A795C8
:100F30009795879581349105A105B10530F18138E8
:100F40009105A105B10530F1813C9105A105B105DF
:100F500030F1813021E09207A105B10528F18933F4
:100F600021E09207A105B10520F18B3921E092071C
:100F7000A105B10518F18B399240A105B10518F50D
:100F8000E2E1F0E0A8E1B0E022C0EEEBF1E0A2EF98
:100F9000B1E01DC0E1EDF2E0A4E1B2E018C0EBE782
:100FA000F3E0AFE3B2E013C0EEEFF3E0A0E7B2E0AE
:100FB0000EC0ECEFF1E0AFE6B1E009C0EBEFF0E01E
:100FC000A2EDB0E004C0E0E0F0E0A0E0B0E0A501F8
:100FD00094010E947D246B017C0180E2D80EE11C0B
:100FE000F11CDF01A30192010E947D24C61AD70AD9
:100FF000E80AF90A9EE0F694E794D794C7949A9584
:10100000D1F704C0C12CD12C7601E394C701B601FD
:10101000FF90EF90DF90CF90BF90AF909F908F9018
:101020007F906F905F904F9008951F93CF93DF93C1
:1010300000D000D0CDB7DEB7162FDC0113968C910F
:10104000682F772767FD709580E196E029833A83C2
:101050004B835C830E94C71C612F80E196E00E9455
:10106000641CE0911006F091110629813A814B81B0
:101070005C81CA01B9017727882799270190F081FF
:10108000E02D80E196E0099580E196E00F900F90C9
:101090000F900F90DF91CF911F910C94DC1C23E0F7
:1010A00030E040E050E060E80C94150820E030E0CB
:1010B000A90160E80C9415081F93CF93DF93EC010E
:1010C000162F8B81682F772767FD709580E196E05A
:1010D0000E94C71C612F80E196E00E94641C80E1A1
:1010E00096E00E94DC1C6B81772767FD709541E0DC
:1010F00050E080E196E00E94BA1C80E196E00E94F8
:10110000141CDF91CF911F910895CF93DF93EC01D1
:1011100080E196E00E94A31C6AE0CE010E945C0878
:101120008A7089F081E08C836E817F81CE010E947C
:10113000A70868857985CE010E94CB08CE010E9460
:10114000560881E001C080E0DF91CF9108950F93B0
:101150001F93CF93DF93EC018B018C81811103C02E
:10116000CE010E948508CE010E944F08288539854E
:10117000202B312B442737FD4095542F61E8CE01B9
:101180000E9415081F830E83CE01DF91CF911F911E
:101190000F910C9456080F931F93CF93DF93EC019C
:1011A0008B018C81811103C0CE010E948508CE0184
:1011B0000E944F082E813F81202B312B442737FD81
:1011C0004095542F61E8CE010E94150819870887C1
:1011D000CE01DF91CF911F910F910C9456081F9370
:1011E000CF93DF93EC01162F8B81682F772767FD54
:1011F000709580E196E00E94C71C612F80E196E027
:101200000E94641C80E196E00E94DC1C6B817727C1
:1012100067FD709542E050E080E196E00E94BA1CC4
:1012200080E196E00E94141CEC0180E196E00E94AF
:10123000141C20E030E0382FC9018C2B9D2BDF914E
:10124000CF911F910895EF92FF920F931F93CF9329
:10125000DF93EC017B018A010E944F088E819F8100
:10126000009739F0019751F468E770E080E090E072
:1012700009C06FE070E080E090E004C062EC71E0D3
:1012800080E090E00E94170F6CEACE010E94EF0808
:10129000F701918380836EEACE010E94EF08F80186
:1012A00091838083CE01DF91CF911F910F91FF90A9
:1012B000EF900C9456088F929F92AF92BF92CF926C
:1012C000DF92EF92FF920F931F93CF93DF9300D0A3
:1012D00000D01F92CDB7DEB78C016B017A01FC0103
:1012E0008481811103C0C8010E948508F8018581AD
:1012F000811106C0A701B601C8010E9423095BC085
:1013000020E0F80186819781009759F0019789F0D4
:1013100064EF862E9924939478E1A72E76EFB72E6A
:101320000FC0E4E68E2E912CF2EFAF2EF2E1BF2E2D
:1013300007C048EC842E912C50EAA52E5CE8B52E0F
:10134000AE014F5F5F4FBE016D5F7F4FC8012D83C0
:101350000E9423098B819C812D81211124C0881535
:10136000990540F4F80120853185232BE1F460E1F3
:1013700070E00BC0A816B906B0F4F80120853185DD
:101380002031310581F460E070E0C8010E94CB0893
:10139000AE014F5F5F4FBE016D5F7F4FC8010E947E
:1013A000230921E0AECFF6019183808389819A8160
:1013B000F701918380830F900F900F900F900F9003
:1013C000DF91CF911F910F91FF90EF90DF90CF9021
:1013D000BF90AF909F908F900895EF92FF920F93E0
:1013E0001F93CF93DF9300D000D0CDB7DEB77C0141
:1013F0008B0184E2FB0111928A95E9F784E290E087
:10140000A0E0B0E0FB0180839183A283B383F70166
:1014100082859385A485B585FB0184839583A68306
:10142000B78385E090E0A0E0B0E080879187A28755
:10143000B3870E94E80EF801608B718B828B938BCF
:10144000AE014F5F5F4FBE016D5F7F4FC7010E94CE
:101450005B0949815A816B817C81C7010E94120717
:101460000E94D922F801648B758B868B978B11E0D3
:1014700020E030E040E857E40E943C22811101C0A6
:1014800010E0812F0F900F900F900F90DF91CF9170
:101490001F910F91FF90EF900895DC0115966C93CA
:1014A000159716964C93169770E0FB01EC52FD4F82
:1014B000E4911796EC931797FB01E65EFC4F64915D
:1014C00018966C93189740E85EE360E070E01D9614
:1014D0004D935D936D937C9350970895CF93DF93D5
:1014E000EC0162E08D810E94B61040E358EF6FEF8F
:1014F0007FEF49875A876B877C87DF91CF9108956B
:10150000AF92BF92CF92DF92EF92FF920F931F9311
:10151000CF93DF93EC01AF80662311F0BA2C01C0AA
:10152000B12CA885B0E0AA0FBB1FA05ABC4F40E069
:1015300050E0BA01FD0185919491FC0180818A21DE
:101540008B1112C08A019B010F5F1F4F2F4F3F4F1E
:10155000CD84DE84EF84F8884C155D056E057F052B
:1015600038F4B901A801E6CF342F252FCB0104C0F0
:1015700030E020E080E090E0632F722FDF91CF9188
:101580001F910F91FF90EF90DF90CF90BF90AF90A1
:101590000895CF92DF92EF92FF920F931F93CF9314
:1015A000DF93CDB7DEB7C054D1400FB6F894DEBF9D
:1015B0000FBECDBF8C01F62E0E94E80EF11016C0B2
:1015C000F801C184D284E384F4849B01AC012C191A
:1015D0003D094E095F0969017A0130EDC31637E014
:1015E000D306E104F10410F48189BAC0F8016187DF
:1015F00072878387948714821382128211821082E9
:1016000061E085810E94EF106AEF70E080E090E079
:101610000E94170F61E0F80185810E94B61060E01A
:10162000F80185810E94EF1064E170E080E090E0B5
:101630000E94170FF89461E0F80185810E94EF1075
:1016400088E290E00E943D0F62E0F80185810E94EF
:10165000B6108AE090E00E943D0F60E0C8010E9451
:10166000800A672B682B692B41F061E0C8010E945A
:10167000800A672B682B692B21F4F801118A789472
:101680006EC06E01FFEBCF1AFEEFDF0A9E012F5FE7
:101690003F4F790160E0C8010E94800AF701608332
:1016A00071838283938361E0C8010E94800AF701FD
:1016B0006483758386839783F8E0EF0EF11CEC1446
:1016C000FD0441F778949E012F5F3F4F790120E0A0
:1016D00030E0F7014081518162817381848195817D
:1016E000A681B7814115510561057105B1F10097DA
:1016F000A105B10591F1F901F595E795F595E79506
:10170000F595E795E00FF11FD080DD0C48175907DC
:101710006A077B0710F0D08203C08D2D8160808323
:101720002F5F3F4FF8E0EF0EF11C2832310589F6AC
:10173000F801248130E04081818190E0840F911D87
:101740004281840F911D4381840F911D9927281791
:10175000390719F481E0818B03C0F801118A80E018
:10176000C05CDE4F0FB6F894DEBF0FBECDBFDF9179
:10177000CF911F910F91FF90EF90DF90CF90089540
:10178000CF92DF92EF92FF920F931F93CF93DF934D
:10179000EC01162F642F0E94C90A882309F443C064
:1017A0008E818B3031F008F43EC08551823040F09C
:1017B0003AC06A8170E080E090E00E94D92224C0A3
:1017C0000A81602F6F7770E080E090E00E94DB225A
:1017D00020E030E040E853E40E948F236B017C015D
:1017E0006B8170E080E090E00E94DB229B01AC0105
:1017F000C701B6010E94D8212DEC3CEC4CEC5DE316
:101800000E948F2307FD9058112389F026E636E6C3
:1018100046EE5FE30E948F2320E030E040E052E498
:101820000E94D82104C060E070E080EC9FE7DF9167
:10183000CF911F910F91FF90EF90DF90CF9008957F
:10184000CF92DF92EF92FF92CF93DF93EC0160E0B3
:101850000E94C90A882379F18E818B3029F158F1D1
:101860008551823040F5688170E080E090E00E9410
:10187000D92220E030E040E853E40E948F236B013E
:101880007C01698170E080E090E00E94DB229B0196
:10189000AC01C701B6010E94D8212DEC3CEC4CEC08
:1018A0005DE30E948F230BC0688170E080E090E0D0
:1018B0000E94D92204C060E070E080EC9FE7DF91D5
:1018C000CF91FF90EF90DF90CF90089560E070E0AF
:1018D00084E992E00E94CB0860E070E084E992E045
:1018E0000C94A70861E089E00E94B610E1EBF0E0FB
:1018F0008081887F816080831092720210927102D1
:10190000089540E052EC61E070E089E393E00E94CA
:10191000731787EB92E00E946E0A85EA92E00E94BC
:101920006E0A64E070E082EA92E00E946E1B84E935
:1019300092E00E9485080E94660C83E792E00E9474
:1019400017050E94720C61E08AE20E94B61060E006
:101950008AE20E94EF1061E08BE20E94B61060E024
:101960008BE20E94EF1061E08CE20E94B61060E012
:101970008CE20E94EF1061E08DE20E94B61060E000
:101980008DE20C94EF1026E046E167E087EB92E0F1
:101990000E944D0A26E046E168E085EA92E00E9456
:1019A0004D0A82EA92E00E94A31A29E330E340E064
:1019B00050E069E384E992E00E94010762E086E872
:1019C00092E00E94460366E872E083E792E00E949C
:1019D0000E0467E372E086E692E00C94A71386E6B5
:1019E00092E00E9439138EE192E0909395028093E9
:1019F00094020895CF93DF93CDB7DEB7A4970FB6C7
:101A0000F894DEBF0FBECDBF89E393E00E94DC14E3
:101A1000181619060CF064C189E393E00E940515BD
:101A20008A3009F057C160E070E086E692E00E94DB
:101A30005914FC018081992787FD9095A92FB92F12
:101A4000FC01E154F109E333F10508F03CC1EE5823
:101A5000FF4F0C94772420916A0230916B0241E091
:101A600050E066E672E0CE0101960E947C14BE0151
:101A70006F5F7F4F86E692E00E94BE13CE01019613
:101A80000E94391386E692E00E94C1147093050209
:101A90006093040218C120916A0230916B0241E008
:101AA00050E066E672E0CE0101960E947C14BE0111
:101AB0006F5F7F4F86E692E00E94BE13CE010196D3
:101AC0000E94391386E692E00E94C114709372025C
:101AD00060937102F8C020916A0230916B0241E07C
:101AE00050E066E672E0CE0101960E947C14BE01D1
:101AF0006F5F7F4F86E692E00E94BE13CE01019693
:101B00000E94391386E692E00E94C11421E0672BFF
:101B1000682B692B09F420E020937002D4C0209137
:101B20006A0230916B0241E050E066E672E0CE015D
:101B300001960E947C14BE016F5F7F4F86E692E0A3
:101B40000E94BE13CE0101960E94391386E692E0F0
:101B50000E94C11421E0672B682B692B09F420E057
:101B600020936F02B0C020916A0230916B0241E075
:101B700050E066E672E0CE0101960E947C14BE0140
:101B80006F5F7F4F86E692E00E94BE13CE01019602
:101B90000E94391386E692E00E94C11421E0672B6F
:101BA000682B692B09F420E020936E028CC02091F1
:101BB0006A0230916B0241E050E066E672E0CE01CD
:101BC00001960E947C14BE016F5F7F4F86E692E013
:101BD0000E94BE13CE0101960E94391386E692E060
:101BE0000E94C11421E0672B682B692B09F420E0C7
:101BF00020936D0268C040E060E087EB92E008C08F
:101C000060E087EB92E00AC040E060E085EA92E0A5
:101C10000E94C00B23C060E085EA92E00E94200C85
:101C20001DC0BE016F5F7F4F84E992E00E94ED0905
:101C30006D897E898F89988D0E94A8224AE050E0A4
:101C400089E393E00E94441238C083E792E00E9447
:101C5000DC0560E083E792E00E946F06AB01BC0107
:101C600022E030E089E393E00E94371326C06091C0
:101C700004027091050211C06091710270917202AC
:101C80000CC06091700208C060916F0205C0609145
:101C90006E0202C060916D0270E04AE0CE010196D2
:101CA0000E94ED13BE016F5F7F4F89E393E00E94B6
:101CB0006311CE0101960E94391366E372E089E355
:101CC00093E00E94981167E372E086E692E00E943A
:101CD000D5139ACE682F86E692E00E94461494CEE1
:101CE000A4960FB6F894DEBF0FBECDBFDF91CF91A3
:101CF00008950E94FA0C609104027091050282EA34
:101D000092E00E94A71B609171027091720289E0BB
:101D10000E94AA0F609170028AE20E94EF10609107
:101D20006F028BE20E94EF1060916E028CE20E94C3
:101D3000EF1060916D028DE20C94EF101F920F92E4
:101D40000FB60F9211242F933F938F939F93AF93CE
:101D5000BF938091CA029091CB02A091CC02B09126
:101D6000CD023091C90223E0230F2D3720F40196D4
:101D7000A11DB11D05C026E8230F0296A11DB11DAE
:101D80002093C9028093CA029093CB02A093CC0205
:101D9000B093CD028091CE029091CF02A091D0025B
:101DA000B091D1020196A11DB11D8093CE029093F6
:101DB000CF02A093D002B093D102BF91AF919F9177
:101DC0008F913F912F910F900FBE0F901F901895FC
:101DD0002FB7F8946091CA027091CB028091CC0227
:101DE0009091CD022FBF08953FB7F8948091CE0215
:101DF0009091CF02A091D002B091D10226B5A89BBC
:101E000005C02F3F19F00196A11DB11D3FBF6627E8
:101E1000782F892F9A2F620F711D811D911D42E02D
:101E2000660F771F881F991F4A95D1F70895CF92A3
:101E3000DF92EF92FF92CF93DF936B017C010E94C0
:101E4000F40EEB01C114D104E104F10479F00E9415
:101E5000F40E6C1B7D0B683E7340A0F381E0C81A42
:101E6000D108E108F108C851DC4FECCFDF91CF91E8
:101E7000FF90EF90DF90CF9008950197009739F091
:101E8000880F991F880F991F02970197F1F70895FE
:101E9000789484B5826084BD84B5816084BD85B545
:101EA000826085BD85B5816085BDEEE6F0E080810C
:101EB00081608083E1E8F0E010828081826080832D
:101EC000808181608083E0E8F0E0808181608083B0
:101ED000E1EBF0E0808184608083E0EBF0E08081E2
:101EE00081608083E1E9F0E080818260808380818D
:101EF00081608083E0E9F0E0808181608083E1EAB5
:101F0000F0E0808182608083808181608083E0EA6C
:101F1000F0E0808181608083E1E2F1E08081826095
:101F20008083808181608083E0E2F1E08081816054
:101F30008083EAE7F0E08081846080838081826032
:101F4000808380818160808380818068808310921B
:101F5000C10008951F93CF93DF93182FEB0161E029
:101F60000E94B610209711F460E004C0CF3FD10565
:101F700039F461E0812FDF91CF911F910C94EF1024
:101F8000E12FF0E0E257FD4F449150E0FA01319724
:101F9000E131F10508F091C0EB55FF4F0C94772427
:101FA00084B5806884BDC7BD8DC084B5806284BDA2
:101FB000C8BD88C080918000806880938000D093E5
:101FC0008900C09388007EC08091800080628093E9
:101FD0008000D0938B00C0938A0074C08091B000C1
:101FE00080688093B000C093B3006CC08091B00053
:101FF00080628093B000C093B40064C08091900070
:10200000806880939000D0939900C09398005AC044
:1020100080919000806280939000D0939B00C09349
:102020009A0050C080919000886080939000D09377
:102030009D00C0939C0046C08091A0008068809362
:10204000A0008091A0008F7B8093A000D093A90076
:10205000C093A80037C08091A00080628093A00048
:10206000D093AB00C093AA002DC08091A0008860DF
:102070008093A000D093AD00C093AC0023C08091AA
:102080002001806880932001D0932901C09328010A
:1020900019C080912001806280932001D0932B0190
:1020A000C0932A010FC08091200188608093200195
:1020B000D0932D01C0932C0105C0C038D1050CF080
:1020C00058CF52CFDF91CF911F91089590E0FC013E
:1020D0003197E131F10508F048C0EA54FF4F0C9404
:1020E0007724809180008F7703C0809180008F7D5E
:1020F00080938000089584B58F7702C084B58F7D6A
:1021000084BD08958091B0008F7703C08091B000A6
:102110008F7D8093B0000895809190008F7707C0E5
:10212000809190008F7D03C080919000877F809385
:10213000900008958091A0008F7707C08091A00043
:102140008F7D03C08091A000877F8093A0000895B9
:10215000809120018F7707C0809120018F7D03C07F
:1021600080912001877F809320010895CF93DF9392
:1021700090E0FC01EC52FD4F2491FC01E65EFC4F27
:102180008491882349F190E0880F991FFC01EC5657
:10219000FC4FA591B49186589C4FFC01C591D491F8
:1021A0009FB7611108C0F8948C91209582238C937D
:1021B000888182230AC0623051F4F8948C91322FC6
:1021C000309583238C938881822B888304C0F89474
:1021D0008C91822B8C939FBFDF91CF9108950F93A9
:1021E0001F93CF93DF931F92CDB7DEB7282F30E038
:1021F000F901E257FD4F8491F901EC52FD4F149122
:10220000F901E65EFC4F04910023C9F0882321F018
:1022100069830E9466106981E02FF0E0EE0FFF1FD6
:10222000E658FC4FA591B4919FB7F8948C91611139
:1022300003C01095812301C0812B8C939FBF0F9009
:10224000DF91CF911F910F910895CF92DF92EF927E
:10225000FF920F931F93CF93DF936C017A01EB01F1
:10226000E60EF71E00E010E0CE15DF0561F0699183
:10227000D601ED91FC910190F081E02DC601099508
:10228000080F191FF1CFC801DF91CF911F910F9156
:10229000FF90EF90DF90CF9008956115710581F068
:1022A000DB010D900020E9F7AD0141505109461BBB
:1022B000570BDC01ED91FC910280F381E02D099434
:1022C00080E090E00895AF92BF92CF92DF92EF92BC
:1022D000FF920F931F93CF93DF937C016B01C0E0BC
:1022E000D0E000E010E0D60114968D919C911597F6
:1022F000C817D90788F4D701ED91FC91A080B1806F
:10230000BE01C6010E946B14682FC701F501099533
:10231000080F191F2196E7CFC801DF91CF911F91B8
:102320000F91FF90EF90DF90CF90BF90AF90089506
:102330000C944D11DC01ED91FC910190F081E02DA8
:1023400009948F929F92AF92BF92CF92DF92EF92B9
:10235000FF920F931F93CF93DF93CDB7DEB7A19773
:102360000FB6F894DEBF0FBECDBF7C01C42EE52FA3
:10237000CB01D22E19A221E02D1510F02AE0D22E89
:102380008E010F5D1F4F8D2C912CA12CB12C6C2D2B
:102390007E2FA50194010E9436248C2DD29E801997
:1023A0001124015011098A3014F4805D01C0895C48
:1023B000F8018083211531054105510521F0C22E18
:1023C000E32FCA01E4CFB801C7010E944D11A196C5
:1023D0000FB6F894DEBF0FBECDBFDF91CF911F9136
:1023E0000F91FF90EF90DF90CF90BF90AF909F90B4
:1023F0008F900895CF92DF92EF92FF920F931F93E9
:10240000CF93DF93EC016A017B012115310579F44B
:10241000E881F9810190F081E02D642FDF91CF9167
:102420001F910F91FF90EF90DF90CF9009942A3089
:102430003105E9F477FF1AC06DE20E949A118C0110
:1024400044275527BA014C195D096E097F092AE016
:10245000CE010E94A111800F911FDF91CF911F919A
:102460000F91FF90EF90DF90CF9008952AE0B70191
:10247000A601CE01DF91CF911F910F91FF90EF90B8
:10248000DF90CF900C94A1119A01AB01662757FD04
:102490006095762F0C94FA114F925F926F927F9213
:1024A0008F929F92AF92BF92CF92DF92EF92FF9264
:1024B0000F931F93CF93DF93EC016A017B01B22E40
:1024C0009A01AB01C701B6010E94F223882319F0DB
:1024D00068E372E027C026013701E89477F82FEF10
:1024E0003FEF4FE75FE7C301B2010E94F223811182
:1024F0000DC02FEF3FEF4FE75FE7C301B2010E942E
:102500003C2218161CF46CE372E00CC02FEF3FEF76
:102510004FE75FE4C701B6010E948B231816ACF4A5
:1025200060E472E0CE01DF91CF911F910F91FF9097
:10253000EF90DF90CF90BF90AF909F908F907F9063
:102540006F905F904F900C944D112FEF3FEF4FE73E
:102550005FECC701B6010E943C2287FDE1CF20E07D
:1025600030E0A901C701B6010E943C2287FF0AC0E2
:102570006DE2CE010E949A118C01F7FAF094F7F8FF
:10258000F09402C000E010E0A12C60E070E080E078
:102590009FE3AB1441F020E030E040E251E40E94C0
:1025A0004022A394F6CF9B01AC01C701B6010E9463
:1025B000D8216B017C010E94AD222B013C010E94BD
:1025C000D9229B01AC01C701B6010E94D7216B0142
:1025D0007C012AE0B301A201CE010E94A111080FE3
:1025E000191FBB2039F064E472E0CE010E944D1146
:1025F000080F191F7B2C772041F120E030E040E2EA
:1026000051E4C701B6010E948F236B017C010E9437
:10261000A8224B01AA2497FCA094BA2C2AE030E00F
:10262000B501A401CE010E94FA11080F191FC501BE
:10263000B4010E94DB229B01AC01C701B6010E94DC
:10264000D7216B017C017A94D6CFC801DF91CF915D
:102650001F910F91FF90EF90DF90CF90BF90AF90C0
:102660009F908F907F906F905F904F9008950C9403
:102670004C12FC01808191810C94641ECF93DF93F6
:10268000EC0188819981009711F00E94641E1982E3
:1026900018821D821C821B821A82DF91CF910895BD
:1026A0000F931F93CF93DF93EC018B016F5F7F4FED
:1026B000888199810E94E31C009731F09983888377
:1026C0001B830A8381E001C080E0DF91CF911F91DD
:1026D0000F910895CF93DF93EC0188819981892B25
:1026E00029F08A819B818617970760F4CE010E94AA
:1026F0005013882341F08C819D81892B19F4E88146
:10270000F981108281E0DF91CF910895EF92FF92DD
:102710000F931F93CF93DF93EC017B018A01BA01E2
:102720000E946A13811104C0CE010E943E1307C0AB
:102730001D830C83B701888199810E947C21CE0181
:10274000DF91CF911F910F91FF90EF900895FC01C1
:1027500011821082138212821582148216826115F0
:10276000710559F0FB0101900020E9F7AF014150DC
:102770005109461B570B0C9486130895CF93DF9392
:10278000EC01FB018617970761F06081718161158B
:10279000710529F0448155810E94861302C00E9470
:1027A0003E13CE01DF91CF910895CF93DF93EC01DB
:1027B0006115710561F0FB0101900020E9F7AF019F
:1027C00041505109461B570B0E94861302C00E94BC
:1027D0003E13CE01DF91CF9108950F931F93CF93B6
:1027E000DF93CDB7DEB762970FB6F894DEBF0FBEAA
:1027F000CDBF8C01CB01F8011182108213821282AD
:1028000015821482168250E0BE016F5F7F4F0E94D6
:102810009221BE016F5F7F4FC8010E94D51362965F
:102820000FB6F894DEBF0FBECDBFDF91CF911F91E1
:102830000F910895EF92FF920F931F93CF93DF9321
:10284000EC017B010C811D816115710511F480E0A3
:1028500016C04115510591F0040F151FB8010E94D3
:102860006A138823A1F3288139818C819D81B70166
:10287000820F931F0E947C211D830C8381E0DF91D6
:10288000CF911F910F91FF90EF900895CF93DF9319
:1028900000D0CDB7DEB769831A8241E050E0BE01B7
:1028A0006F5F7F4F0E941A140F900F90DF91CF91AE
:1028B0000895FC01848195816817790720F480814F
:1028C0009181009729F41092D20282ED92E008954E
:1028D000860F971F0895FC012481358162177307C5
:1028E00048F480819181009729F0FC01E60FF71FE1
:1028F0008081089580E00895BF92CF92DF92EF9299
:10290000FF920F931F93CF93DF936C017B01EA013A
:1029100089012417350720F48D2FE901042F182F82
:1029200067E372E0C6010E94A713D70114968D9148
:102930009C9115978C179D07C8F08017910708F494
:102940008C01D701ED91FC911197E00FF11FB08040
:1029500010826D917C916C0F7D1FC6010E94D51372
:10296000D701ED91FC91E00FF11FB082C601DF911C
:10297000CF911F910F91FF90EF90DF90CF90BF907C
:102980000895FC0180819181009711F00C944921F8
:1029900060E070E0CB0108950C94641E08950E94DD
:1029A000480F0E94810CC6E5D6E10E94790E20975F
:1029B000E1F30E945616F9CFFC0124853585F90113
:1029C000E05CFF4F80819181329620813181821BB2
:1029D000930B8F7399270895FC0184859585FC01DD
:1029E000E05CFF4F40815181329620813181421756
:1029F000530741F00190F081E02DE80FF91F80812D
:102A000090E008958FEF9FEF0895FC0184859585F0
:102A1000FC01E05CFF4F4081518132962081318181
:102A20004217530779F0A081B181A80FB91F8C918B
:102A3000208131812F5F3F4F2F73332731832083D4
:102A400090E008958FEF9FEF0895FC0181A1882306
:102A500029F0A489B5898C9186FFFBCF11A2089536
:102A6000CF93DF93FC0126853785D901A05CBF4F4A
:102A70008D919C91119701968F739927E901CE5BF7
:102A8000DF4F4881598184179507D9F30D90BC9188
:102A9000A02DA20FB31F6C93A685B785A05CBF4F76
:102AA00011969C938E93A689B7892C9181E090E032
:102AB000078C02C0880F991F0A94E2F7282B2C93E9
:102AC00081E081A30488F589E02D80818064808382
:102AD00081E090E0DF91CF910895FB01E05CFF4F32
:102AE000208131812F5F3F4F2F733327DB01AE5B96
:102AF000BF4F4D915C912417350739F0A081B1810A
:102B0000A60FB71F8C9331832083089508951F92D9
:102B10000F920FB60F9211240BB60F922F933F9383
:102B20004F935F936F937F938F939F93AF93BF93D5
:102B3000EF93FF938091C00082FD07C08091C60093
:102B400067E375E00E946D1502C08091C600FF9199
:102B5000EF91BF91AF919F918F917F916F915F9115
:102B60004F913F912F910F900BBE0F900FBE0F9082
:102B70001F90189508951F920F920FB60F9211246F
:102B80000BB60F922F933F934F935F936F937F9367
:102B90008F939F93AF93BF93EF93FF938091C80060
:102BA00082FD07C08091CE006FEA74E00E946D152F
:102BB00002C08091CE00FF91EF91BF91AF919F91A4
:102BC0008F917F916F915F914F913F912F910F90D6
:102BD0000BBE0F900FBE0F901F90189508951F9277
:102BE0000F920FB60F9211240BB60F922F933F93B3
:102BF0004F935F936F937F938F939F93AF93BF9305
:102C0000EF93FF938091D00082FD07C08091D600A2
:102C100067E274E00E946D1502C08091D600FF91BA
:102C2000EF91BF91AF919F918F917F916F915F9144
:102C30004F913F912F910F900BBE0F900FBE0F90B1
:102C40001F90189508951F920F920FB60F9211249E
:102C50000BB60F922F933F934F935F936F937F9396
:102C60008F939F93AF93BF93EF93FF938091300126
:102C700082FD07C0809136016FE973E00E946D15F7
:102C800002C080913601FF91EF91BF91AF919F916A
:102C90008F917F916F915F914F913F912F910F9005
:102CA0000BBE0F900FBE0F901F90189589E393E015
:102CB0000E94DC14892B11F00E94861587E193E0B5
:102CC0000E94DC14892B11F00E94BA1585EF92E066
:102CD0000E94DC14892B11F00E94EE1583ED92E026
:102CE0000E94DC14892B11F00C94221608951F9277
:102CF0000F920FB60F9211240BB60F922F933F93A2
:102D00008F939F93EF93FF93209133053091340578
:102D100080913505909136052817390731F4809157
:102D2000C1008F7D8093C10014C0E0913505F09102
:102D30003605ED50FB4F2081809135059091360589
:102D400001968F73992790933605809335052093CC
:102D5000C600FF91EF919F918F913F912F910F901E
:102D60000BBE0F900FBE0F901F9018951F920F92E1
:102D70000FB60F9211240BB60F922F933F938F93A0
:102D80009F93EF93FF932091AB043091AC0480911B
:102D9000AD049091AE042817390731F48091C90031
:102DA0008F7D8093C90014C0E091AD04F091AE0412
:102DB000E559FB4F20818091AD049091AE040196BE
:102DC0008F7399279093AE048093AD042093CE0027
:102DD000FF91EF919F918F913F912F910F900BBE9B
:102DE0000F900FBE0F901F9018951F920F920FB665
:102DF0000F9211240BB60F922F933F938F939F93B3
:102E0000EF93FF93209123043091240480912504B3
:102E1000909126042817390731F48091D1008F7DD5
:102E20008093D10014C0E0912504F0912604ED5167
:102E3000FC4F2081809125049091260401968F7388
:102E4000992790932604809325042093D600FF9120
:102E5000EF919F918F913F912F910F900BBE0F900B
:102E60000FBE0F901F9018951F920F920FB60F92E2
:102E700011240BB60F922F933F938F939F93EF9351
:102E8000FF9320919B0330919C0380919D0390912F
:102E90009E032817390731F4809131018F7D80938B
:102EA000310114C0E0919D03F0919E03E55AFC4F5F
:102EB000208180919D0390919E0301968F739927A5
:102EC00090939E0380939D0320933601FF91EF9191
:102ED0009F918F913F912F910F900BBE0F900FBE3E
:102EE0000F901F901895CF92DF92EF92FF92CF93A1
:102EF000DF93EC016A017B01411581EE5807610502
:102F00007105F9F0EC89FD8981E090E008A002C02C
:102F1000880F991F0A94E2F7808360E079E08DE3DF
:102F200090E0A70196010E94362421503109410901
:102F300051095695479537952795211580E1380712
:102F400098F0EC89FD89108260E874E88EE190E0E9
:102F5000A70196010E9436242150310941095109E7
:102F60005695479537952795E889F9893083EA89F9
:102F7000FB89208319A2EE89FF89408181E090E0DE
:102F80009C010C8C02C0220F331F0A94E2F7422BE3
:102F90004083EE89FF8940819C010D8C02C0220F85
:102FA000331F0A94E2F7422B4083EE89FF89408168
:102FB0009C010E8C02C0220F331F0A94E2F7422BB1
:102FC0004083EE89FF8920810F8C02C0880F991FF2
:102FD0000A94E2F7809582238083DF91CF91FF905E
:102FE000EF90DF90CF900895CF9310923C03109212
:102FF0003B0388EE93E0A0E0B0E080933D03909324
:103000003E03A0933F03B09340032AE432E03093A1
:103010003A032093390347E355E050934603409326
:10302000450343EF54E0509348034093470345EC76
:1030300050E050934A034093490344EC50E05093CE
:103040004C0340934B0340EC50E050934E034093AD
:103050004D0341EC50E05093500340934F0342EC3A
:1030600050E0509352034093510346EC50E050938C
:10307000540340935303C4E0C0935503F3E0F0932B
:103080005603E7E0E093570375E07093580361E05F
:103090006093590310921A031092190380931B0333
:1030A00090931C03A0931D03B0931E033093180349
:1030B000209317034FEA54E05093240340932303D3
:1030C0004BE654E050932603409325034DEC50E02B
:1030D00050932803409327034CEC50E050932A036D
:1030E0004093290348EC50E050932C0340932B036A
:1030F00049EC50E050932E0340932D034AEC50E0EE
:103100005093300340932F034EEC50E05093320322
:1031100040933103C0933303F0933403E0933503BA
:1031200070933603609337031092F8021092F702FF
:103130008093F9029093FA02A093FB02B093FC02F1
:103140003093F6022093F50247E254E050930203D5
:103150004093010343EE53E0509304034093030371
:1031600045ED50E0509306034093050344ED50E0D5
:10317000509308034093070340ED50E050930A0337
:103180004093090341ED50E050930C0340930B032F
:1031900042ED50E050930E0340930D0346ED50E096
:1031A0005093100340930F03C0931103F093120345
:1031B000E093130370931403609315031092D602E7
:1031C0001092D5028093D7029093D802A093D9028F
:1031D000B093DA023093D4022093D3028FE993E0C4
:1031E0009093E0028093DF028BE593E09093E202FC
:1031F0008093E10285E391E09093E4028093E302FF
:1032000084E391E09093E6028093E50280E391E00D
:103210009093E8028093E70281E391E09093EA02C1
:103220008093E90282E391E09093EC028093EB02B9
:1032300086E391E09093EE028093ED02C093EF025B
:10324000F093F002E093F1027093F2026093F302C4
:10325000CF910895CF92DF92EF92FF920F931F9339
:10326000CF93DF936C018B017A01EC01C458DA4FE4
:10327000888187FF04C0FB011182108223C02CE0EB
:103280002C9DC0012D9D900D11242881AC01420F71
:10329000511D27FD5A9520917B0530E042175307B9
:1032A0008CF42881AC01420F511D27FD5A959A01DB
:1032B000FA01EE0FFF1FE20FF31FE058FA4F2081D3
:1032C00026FD19C088818F5F88838CE08C9D9001DA
:1032D0008D9D300D11248881A901480F511D87FD56
:1032E0005A9580917B0590E048175907B4F488817E
:1032F0008C303CF112C02881820F911D27FD9A95D8
:10330000FC01EE0FFF1FE80FF91FE058FA4F808114
:1033100060E08F730E94EF10D5CFF801808191811A
:10332000049680349C4918F480E49CE904C0F801B8
:10333000808191810496F701918380838FEF888348
:1033400041C0F801808191814881B901640F711DEC
:1033500047FD7A95AB01FB01EE0FFF1FE40FF51F50
:10336000E058FA4F41815281840F951FF7019183F4
:1033700080838881A901480F511D87FD5A95FA0164
:10338000EE0FFF1FE40FF51FE058FA4F808186FF14
:1033900019C08881280F311D87FD3A95F901EE0F7C
:1033A000FF1FE20FF31FE058FA4F808161E08F7337
:1033B000DF91CF911F910F91FF90EF90DF90CF9011
:1033C0000C94EF10DF91CF911F910F91FF90EF9030
:1033D000DF90CF9008951F920F920FB60F92112495
:1033E0000BB60F922F933F934F935F936F937F93FF
:1033F0008F939F93AF93BF93EF93FF9348E850E071
:1034000064E870E081E090E00E942A19FF91EF915A
:10341000BF91AF919F918F917F916F915F914F91EC
:103420003F912F910F900BBE0F900FBE0F901F90EA
:1034300018951F920F920FB60F9211240BB60F9290
:103440002F933F934F935F936F937F938F939F93AC
:10345000AF93BF93EF93FF9348E950E064E970E0C6
:1034600082E090E00E942A19FF91EF91BF91AF9105
:103470009F918F917F916F915F914F913F912F918C
:103480000F900BBE0F900FBE0F901F9018951F92BC
:103490000F920FB60F9211240BB60F922F933F93FA
:1034A0004F935F936F937F938F939F93AF93BF934C
:1034B000EF93FF9348EA50E064EA70E083E090E025
:1034C0000E942A19FF91EF91BF91AF919F918F9127
:1034D0007F916F915F914F913F912F910F900BBE14
:1034E0000F900FBE0F901F9018951F920F920FB65E
:1034F0000F9211240BB60F922F933F934F935F932C
:103500006F937F938F939F93AF93BF93EF93FF93AB
:1035100048E251E064E271E080E090E00E942A1904
:10352000FF91EF91BF91AF919F918F917F916F919B
:103530005F914F913F912F910F900BBE0F900FBE57
:103540000F901F90189520917B052033A0F431E057
:10355000320F30937B05FC012083822F90E0FC0129
:10356000EE0FFF1FE80FF91FE058FA4F88EB9BE0C2
:103570009283818308952FEFFC0120830895DF92C9
:10358000EF92FF920F931F93CF93DF93EC01D62E10
:103590007A0189018881803308F068C061E08D2D4F
:1035A0000E94B6108881A82FB0E0FD01EE0FFF1F2A
:1035B000EA0FFB1FE058FA4F2D2D2F739081907C5E
:1035C000922B908360E272E06E197F0977FF02C050
:1035D0006D5F7F4F7595679575956795698340E633
:1035E00059E0401B510B57FF02C04D5F5F4F55958F
:1035F0004795559547954A836CE00E9416249CE0B8
:10360000899FB001112420E030E0A901460F571F27
:10361000FA01EE0FFF1FE40FF51FE058FA4F9081FB
:1036200096FD18C02F5F3F4F2C30310571F790E0A9
:103630008130910521F51092800082E08093810015
:103640001092850010928400B19A80916F00826080
:1036500080936F00888190E0FC01EE0FFF1FE80F60
:10366000F91FE058FA4F8081806480838881DF9160
:10367000CF911F910F91FF90EF90DF9008958230CE
:10368000910569F41092900082E08093910010926D
:1036900095001092940088BB80937100DBCF83303B
:1036A000910569F41092A00082E08093A10010922D
:1036B000A5001092A40089BB80937200CBCF892B08
:1036C00049F61092200182E0809321011092250199
:1036D000109224018ABB80937300BCCF20E639E0AE
:1036E00040E252E00C94BF1AFC018081803370F5F7
:1036F000918128E830E0291B310997FD3395220F8D
:10370000331F220F331F621773077CF0928128E565
:1037100032E0291B310997FD3395220F331F220F09
:10372000331F621773070CF49B014FB7F89490E0B6
:10373000FC01EE0FFF1FE80FF91FE058FA4F22506F
:103740003109220F331F328321834FBF08954F92D7
:103750005F926F927F92AF92BF92CF92DF92EF9281
:10376000FF920F931F93CF93DF93EC01603282E0BF
:1037700078070CF040C077FD06C0653B71052CF062
:1037800064EB70E002C060E070E0898128E830E01E
:10379000281B310987FD3395220F331F220F331F5A
:1037A0005901CC24B7FCC094DC2C882777FD809588
:1037B000982F2A8148E552E0421B510927FD539575
:1037C000440F551F440F551F2A01662457FC60946F
:1037D000762C7F926F925F924F9214EBE12EF12C38
:1037E00000E010E020E030E0A9010E94F31E0F90FD
:1037F0000F900F900F90CE01DF91CF911F910F91FD
:10380000FF90EF90DF90CF90BF90AF907F906F9040
:103810005F904F900C94741B8091400690E0209133
:103820004106821B9109089520914106809140062E
:10383000281750F4E22FF0E0EE5BF94F808190E022
:103840002F5F2093410608958FEF9FEF0895E09139
:10385000410680914006E81730F4F0E0EE5BF94F46
:10386000808190E008958FEF9FEF08950895CF92A3
:10387000DF92EF92FF920F931F93CF93DF937C0120
:10388000CB018A0120911C06222389F0EB016B01F8
:10389000C40ED51ECC15DD0569F06991D701ED91F7
:1038A000FC910190F081E02DC7010995F3CF642FC1
:1038B0000E94EF1FC801DF91CF911F910F91FF90E0
:1038C000EF90DF90CF900895CF93DF931F92CDB705
:1038D000DEB7698320911C062223D1F020911D06BA
:1038E000203240F021E030E0FC013383228380E08D
:1038F00090E015C080911E06E82FF0E0E15EF94FE0
:10390000998190838F5F80931E0680931D0605C06A
:1039100061E0CE0101960E94EF1F81E090E00F90E0
:10392000DF91CF910895FC011382128248EE53E09B
:1039300060E070E044835583668377838AE592E094
:103940009183808308951092410610924006109250
:103950001E0610921D060C943A1F862F413208F065
:1039600040E262E476E00E94581F10924106809384
:103970004006089521E00C94AD1C81E080931C0664
:1039800060933F0610921E0610921D0608950C9437
:10399000BD1C0F93062F21E040911D066FE176E0DC
:1039A00080913F060E949C1F10921E0610921D06D9
:1039B00010921C060F91089561E00C94C91C80E1DF
:1039C00096E00C94931C6F927F928F929F92AF928D
:1039D000BF92CF92DF92EF92FF920F931F93CF93FC
:1039E000DF93EC01CB01209781F4DF91CF911F9100
:1039F0000F91FF90EF90DF90CF90BF90AF909F908E
:103A00008F907F906F900C94CC1DFE01E60FF71FF6
:103A10009E0122503109E217F30708F4ACC0D90126
:103A20000D911C91119706171707B8F00530110575
:103A300008F49FC0A801445051094617570708F4DD
:103A400098C002501109061B170B019311936D9337
:103A50007C93CF010E94641E8CC05B01A01AB10A46
:103A60004E01800E911EA091D206B091D306612C1A
:103A7000712C60E070E0109709F449C0A815B905F1
:103A8000C9F5ED90FC901197670142E0C40ED11C7E
:103A9000CA14DB0478F147018A189B08640142E0EC
:103AA000C40ED11C1296BC9012971396AC91B5E03F
:103AB000CB16D10440F0B282A38391828082D901D7
:103AC0008D939C9309C00E5F1F4F0E0D1F1DF901B2
:103AD00011830083EB2DFA2F6115710531F0DB01A5
:103AE0001396FC93EE93129744C0F093D306E093A1
:103AF000D2063FC06D917C9111976616770608F447
:103B00003B01BD0112960D90BC91A02DB4CF6091E8
:103B1000D0067091D10668157905E9F46816790622
:103B2000D0F440910602509107024115510541F42D
:103B30004DB75EB760910A0270910B02461B570B9E
:103B4000E417F507C0F4F093D106E093D006F9012D
:103B5000918380830EC00E94CC1D7C01009759F098
:103B6000A801BE010E947321CE010E94641EC701FC
:103B700004C0CE0102C080E090E0DF91CF911F91A0
:103B80000F91FF90EF90DF90CF90BF90AF909F90FC
:103B90008F907F906F900895CF93DF93823091053F
:103BA00010F482E090E0E091D206F091D30620E09C
:103BB00030E0A0E0B0E0309739F140815181481702
:103BC0005907B8F04817590771F48281938110970B
:103BD00029F013969C938E9312972CC09093D30642
:103BE0008093D20627C02115310531F042175307C3
:103BF00018F0A901DB0101C0EF019A01BD01DF014D
:103C00000280F381E02DD7CF21153105F9F0281B73
:103C1000390B2430310580F48A819B81611571054F
:103C200021F0FB019383828304C09093D306809399
:103C3000D206FE01329644C0FE01E20FF31F8193CB
:103C4000919322503109398328833AC02091D006BC
:103C50003091D106232B41F42091080230910902C2
:103C60003093D1062093D0062091060230910702AE
:103C70002115310541F42DB73EB740910A0250910C
:103C80000B02241B350BE091D006F091D106E21710
:103C9000F307A0F42E1B3F0B2817390778F0AC016F
:103CA0004E5F5F4F2417350748F04E0F5F1F50934C
:103CB000D1064093D0068193919302C0E0E0F0E0FA
:103CC000CF01DF91CF910895CF93DF93009709F44F
:103CD00087C0FC01329713821282C091D206D09124
:103CE000D306209781F420813181280F391F8091DC
:103CF000D0069091D1068217930779F5F093D106FB
:103D0000E093D0066DC0DE0120E030E0AE17BF07C3
:103D100050F412964D915C9113979D0141155105F8
:103D200009F1DA01F3CFB383A28340815181840F7B
:103D3000951F8A179B0771F48D919C911197840FA1
:103D4000951F02969183808312968D919C91139773
:103D5000938382832115310529F4F093D306E093F0
:103D6000D2063EC0D9011396FC93EE9312974D9163
:103D70005D91A40FB51FEA17FB0779F4808191814B
:103D8000840F951F0296D90111969C938E93828180
:103D9000938113969C938E931297E0E0F0E08A81D2
:103DA0009B81009719F0FE01EC01F9CFCE0102963C
:103DB00028813981820F931F2091D0063091D1063E
:103DC0002817390769F4309729F41092D306109216
:103DD000D20602C013821282D093D106C093D006BD
:103DE000DF91CF9108954F925F926F927F92AF9241
:103DF000BF92CF92DF92EF92FF920F931F93CF93D8
:103E0000DF93CDB7DEB729013A01621B730B840B38
:103E1000950B29893A894B895C892A193B094C09F8
:103E20005D09298B3A8B4B8B5C8B9B01AC016989BB
:103E30007A898B899C890E940624E418F508060972
:103E40001709A80197010E9458242A0D3B1D4C1DFB
:103E50005D1DCA01B901DF91CF911F910F91FF90B4
:103E6000EF90DF90CF90BF90AF907F906F905F907A
:103E70004F9008951092CF0681E08093CD06109266
:103E8000CC0661E084E10E94EF1061E085E10E94D0
:103E9000EF10E9EBF0E080818E7F808380818D7F61
:103EA000808388E48093B80085E48093BC00089503
:103EB000413208F03FC09091CF069111FCCF91E0C4
:103EC0009093CF062093CD062FEF20936206109299
:103ED000A706240F2093A6069093CE069091CE06B7
:103EE000880F892B8093CE068091CC06813041F4D7
:103EF0001092CC068091CE068093BB0085EC01C069
:103F000085EE8093BC008091CF068130E1F38091F3
:103F1000A706841710F44091A70628EA36E0FB01B3
:103F2000D9018A2F821B841718F48D918193F9CFC0
:103F3000842F089580E008950F93413208F046C021
:103F40009091CF069111FCCF92E09093CF06009311
:103F5000CD069FEF909362061092A7064093A606A7
:103F6000FB0168EA76E0DB019A2F961B941718F4A0
:103F700091919D93F9CF1092CE069091CE06880F25
:103F8000892B8093CE068091CC06813041F410922B
:103F9000CC068091CE068093BB0085EC01C085EEF7
:103FA0008093BC00222321F08091CF068230E1F380
:103FB000809162068F3F61F080916206803251F0FD
:103FC00080916206803341F483E007C081E005C040
:103FD00080E003C082E001C084E00F910895613267
:103FE00098F42091CF06243089F460938406FC0174
:103FF00086E896E0DC012A2F281B261718F4219169
:104000002D93F9CF80E0089581E0089582E008952E
:1040100085ED8093BC008091BC0084FDFCCF1092A4
:10402000CF06089585EC8093BC001092CF060895CA
:104030001F920F920FB60F9211240BB60F922F936F
:104040003F934F935F936F937F938F939F93AF9320
:10405000BF93EF93FF938091B900887F803609F476
:104060009CC068F5883209F45BC090F4803109F493
:1040700054C038F4882309F4F5C0883009F44DC0E1
:10408000F5C0883109F44CC0803209F45DC0EEC03F
:10409000803409F468C048F4803309F455C088338B
:1040A00009F0E4C080936206A8C0803509F44FC0CF
:1040B000883509F45DC0883409F0D8C0D5C0883986
:1040C00009F4C6C0A8F4883709F467C038F4883604
:1040D00009F463C0803709F460C0C8C0883809F4A7
:1040E000B7C0803909F45FC0803809F0BFC05BC039
:1040F000803B09F485C038F4803A09F466C0883AF8
:1041000009F47EC0B3C0803C09F4A6C0883C09F421
:10411000A3C0883B09F489C0A9C08091CE0610C015
:104120009091A7068091A606981770F5E091A706D2
:1041300081E08E0F8093A706F0E0E855F94F80816B
:104140008093BB0085EC85C0809362068DC0E091B2
:10415000A70681E08E0F8093A7068091BB00F0E058
:10416000E855F94F80839091A7068091A6066DC00F
:10417000E091A70681E08E0F8093A7068091BB0097
:10418000F0E0E855F94F80838091CD0681116CC035
:1041900081E08093CC0684EA60C083E08093CF0600
:1041A00010926306CFCF80916306803208F050C032
:1041B000E091630681E08E0F809363068091BB00DF
:1041C000F0E0EC59F94F8083BDCF809163068032D7
:1041D00030F4E0916306F0E0EC59F94F10820E9450
:1041E00008206091630670E0E091C806F091C9066E
:1041F00084E696E00995109263060E94122036C06C
:1042000084E08093CF061092850610928406E09198
:10421000CA06F091CB06099580918406811105C0EC
:1042200081E08093840610928606E091850681E005
:104230008E0F80938506F0E0EA57F94F80818093D6
:10424000BB009091850680918406981708F47ACF78
:1042500085E88093BC000AC085EC8093BC00109276
:10426000CF0604C0109262060E940820FF91EF91D1
:10427000BF91AF919F918F917F916F915F914F917E
:104280003F912F910F900BBE0F900FBE0F901F907C
:1042900018951F93FC0199278827BC01E894119178
:1042A0001032E9F3193010F01E30C8F31B3251F010
:1042B0001D3249F4689406C00E94A821610F711D47
:1042C000811D911D119110531A30B0F33EF4909559
:1042D0008095709561957F4F8F4F9F4F1F910895E7
:1042E000F8940C94AF24FB01DC0102C001900D9204
:1042F00041505040D8F70895FB01DC0101900D9228
:104300000020E1F70895FB01DC014150504048F0E6
:1043100001900D920020C9F701C01D9241505040FC
:10432000E0F708954532510520F4423010F00C9426
:104330009D21FB011082CB010895BB274A3031F447
:10434000992322F4BDE2909581959F4F0C94BE2154
:10435000592F482F372F262F660F771F881F991F39
:10436000660F771F881F991F620F731F841F951F89
:10437000660F771F881F991F0895BB27FB015527DC
:10438000AA27880F991FAA1FA41710F0A41B8395B2
:104390005051B9F7A05DAA3308F0A95DA193009729
:1043A00079F7B111B1931192CB010C94F6235058C7
:1043B000BB27AA270ED075C166D130F06BD120F093
:1043C00031F49F3F11F41EF45BC10EF4E095E7FB5E
:1043D00051C1E92F77D180F3BA17620773078407B9
:1043E000950718F071F49EF58FC10EF4E0950B2E31
:1043F000BA2FA02D0B01B90190010C01CA01A00137
:104400001124FF27591B99F0593F50F4503E68F191
:104410001A16F040A22F232F342F4427585FF3CFD2
:10442000469537952795A795F0405395C9F77EF4A3
:104430001F16BA0B620B730B840BBAF09150A1F0EC
:10444000FF0FBB1F661F771F881FC2F70EC0BA0F72
:10445000621F731F841F48F4879577956795B795FA
:10446000F7959E3F08F0B3CF9395880F08F09927F2
:10447000EE0F979587950895D9D008F481E00895B7
:104480000CD00FC107D140F0FED030F021F45F3FD7
:1044900019F0F0C0511139C1F3C014D198F3992328
:1044A000C9F35523B1F3951B550BBB27AA276217F8
:1044B0007307840738F09F5F5F4F220F331F441F3D
:1044C000AA1FA9F333D00E2E3AF0E0E830D0915075
:1044D0005040E695001CCAF729D0FE2F27D0660F62
:1044E000771F881FBB1F261737074807AB07B0E8A1
:1044F00009F0BB0B802DBF01FF2793585F4F2AF0B7
:104500009E3F510568F0B6C000C15F3FECF3983E96
:10451000DCF3869577956795B795F7959F5FC9F713
:10452000880F911D9695879597F90895E1E0660F9C
:10453000771F881FBB1F621773078407BA0720F015
:10454000621B730B840BBA0BEE1F88F7E09508957E
:1045500004D06894B111D9C00895BCD088F09F5799
:1045600090F0B92F9927B751A0F0D1F0660F771FBF
:10457000881F991F1AF0BA95C9F712C0B13081F09F
:10458000C3D0B1E00895C0C0672F782F8827B85FE7
:1045900039F0B93FCCF3869577956795B395D9F700
:1045A0003EF490958095709561957F4F8F4F9F4F0A
:1045B0000895E89409C097FB3EF490958095709516
:1045C00061957F4F8F4F9F4F9923A9F0F92F96E95F
:1045D000BB279395F695879577956795B795F111D4
:1045E000F8CFFAF4BB0F11F460FF1BC06F5F7F4F71
:1045F0008F4F9F4F16C0882311F096E911C0772383
:1046000021F09EE8872F762F05C0662371F096E88B
:10461000862F70E060E02AF09A95660F771F881F5A
:10462000DAF7880F9695879597F90895990F0008FE
:10463000550FAA0BE0E8FEEF16161706E807F90774
:10464000C0F012161306E407F50798F0621B730B0F
:10465000840B950B39F40A2661F0232B242B252B90
:1046600021F408950A2609F4A140A6958FEF811D33
:10467000811D089597F99F6780E870E060E00895D4
:104680009FEF80EC089500240A941616170618066A
:104690000906089500240A94121613061406050646
:1046A0000895092E0394000C11F4882352F0BB0FD7
:1046B00040F4BF2B11F460FF04C06F5F7F4F8F4F3A
:1046C0009F4F089557FD9058440F551F59F05F3F75
:1046D00071F04795880F97FB991F61F09F3F79F024
:1046E00087950895121613061406551FF2CF4695A6
:1046F000F1DF08C0161617061806991FF1CF869528
:104700007105610508940895E894BB27662777270B
:10471000CB0197F908958ADF08F48FEF08950BD045
:10472000C0CFB1DF28F0B6DF18F0952309F0A2CF93
:10473000A7CF1124EACFC6DFA0F3959FD1F3950F41
:1047400050E0551F629FF001729FBB27F00DB11D15
:10475000639FAA27F00DB11DAA1F649F6627B00DA5
:10476000A11D661F829F2227B00DA11D621F739F8E
:10477000B00DA11D621F839FA00D611D221F749F9C
:104780003327A00D611D231F849F600D211D822FE3
:10479000762F6A2F11249F5750408AF0E1F088232A
:1047A0004AF0EE0FFF1FBB1F661F771F881F915037
:1047B0005040A9F79E3F510570F05CCFA6CF5F3FF8
:1047C000ECF3983EDCF3869577956795B795F7956A
:1047D000E7959F5FC1F7FE2B880F911D96958795F2
:1047E00097F9089523DF880B990B0895DC01FC01EC
:1047F000672F71917723E1F7329704C07C916D9315
:1048000070836291AE17BF07C8F30895DB018F93E1
:104810009F930E947D24BF91AF91A29F800D911D17
:10482000A39F900DB29F900D11240895991B79E0DC
:1048300004C0991F961708F0961B881F7A95C9F730
:104840008095089597FB072E16F4009407D077FD06
:1048500009D00E948C2407FC05D03EF490958195E8
:104860009F4F0895709561957F4F0895A1E21A2E8C
:10487000AA1BBB1BFD010DC0AA1FBB1FEE1FFF1F04
:10488000A217B307E407F50720F0A21BB30BE40B54
:10489000F50B661F771F881F991F1A9469F760959B
:1048A0007095809590959B01AC01BD01CF01089555
:1048B000052E97FB1EF400940E946F2457FD07D02D
:1048C0000E94362407FC03D04EF40C946F245095BC
:1048D0004095309521953F4F4F4F5F4F08959095EC
:1048E0008095709561957F4F8F4F9F4F0895EE0F84
:1048F000FF1F0590F491E02D09940E94A024A59F2C
:10490000900DB49F900DA49F800D911D11240895CA
:104910000790F691E02D0994AA1BBB1B51E107C03B
:10492000AA1FBB1FA617B70710F0A61BB70B881F3F
:10493000991F5A95A9F780959095BC01CD010895CE
:10494000A29FB001B39FC001A39F700D811D1124D0
:10495000911DB29F700D811D1124911D089513E0CA
:10496000C4EBD3E000E006C022970109FE010BBFB3
:104970000E948824C63BD10780E00807A9F7F89475
:02498000FFCF67
:10498200010000000A000000D40680005E00BC00A6
:10499200770154534C3235363100000000009A063C
:1049A200AA06A006CE14CE1400000000A406B1068A
:1049B200A106ED09B8060A006E616E00696E660016
:1049C2006F7666002E000000000030152511DC1401
:1049D2000515EC14251500000000641C371C0C1C86
:0649E200141C271C361C0A
:00000001FF
